{"page":1,"totalPages":1,"itemsOnPage":1000,"address":"3K4J6FSPrpt4uxfhLEqitUeqipA5hR2zJN","balance":"0","totalReceived":"2800000","totalSent":"2800000","unconfirmedBalance":"0","unconfirmedTxs":0,"txs":2,"transactions":[{"txid":"80dce3c699e86476d512083cfef0d847993314430c655640e3b4bad495d2027d","version":1,"vin":[{"txid":"0f286788833e8bf5a4cb906ec40a494162efdfa3168dedbebf19277eeeb5f9fb","sequence":4294967295,"n":0,"addresses":["37Vy2ujqvkaLYjAaouht8dfZnbBN4XBgo4"],"isAddress":true,"value":"1540000000","hex":"220020cca0605b00ec3ed5a6afee6d88b36556e87e6abbbb8edd5088f38d916e991ce1"},{"txid":"7f4b99c3b9e2e584a069d848ffe57a40a5ef5c367c1cde307624786b0fe47381","vout":9,"sequence":4294967295,"n":1,"addresses":["3BVTaKaBYRKKP5TYGZuyUWoXLNN5sWbYY9"],"isAddress":true,"value":"863745542","hex":"2200208e2607e8ac8a15efef82c44390f4aff5fa6031bec8d10bf091609cbae3a5d810"},{"txid":"92fa82b4accf7f36346301aa02547e841264b95ff76fb631c099ef07f90366bc","sequence":4294967295,"n":2,"addresses":["39vZrMjh6E2zWVswztNLK2ii53szk4JaoF"],"isAddress":true,"value":"42100000","hex":"220020fc8d2715d8e5e043aceb46dbc5c7f7b913bebb42156cb1ee67654dbb77d93c27"},{"txid":"3cd7de1367fac7b793fe69660355429f9da407ed610002cd95a2b37607169adb","sequence":4294967295,"n":3,"addresses":["3H8B9uLRYXi9fx14upU9833RaypBxYXiCp"],"isAddress":true,"value":"5607075","hex":"220020ef68d6605d6aaf5c132193b39fdfd65c54d9c515aaaec7fcc76a8e0e226bd9b6"},{"txid":"0dc043ac46f7d50f0db994a53b41fb7d1a954be9257d58a3808bae0a36e6c92a","sequence":4294967295,"n":4,"addresses":["31wrujVVhf92puvwe4uE1cDgKNc4gXuQRz"],"isAddress":true,"value":"129045","hex":"2200207be19a3e30b026faa29539e27d02d0e9599da507fb64fb14f2ba7663ecfa8ea1"},{"txid":"b3b616eb392eee3ba0e7d97b97700f4b78b7f0b5459431de43c22823893ab40a","vout":170,"sequence":4294967295,"n":5,"addresses":["34CH48bVUHiggi4M71yqqY7NtZd5jFtyiV"],"isAddress":true,"value":"492079","hex":"22002078c6d7bff121e4a3ef4ac08ac86fc89d4f312d490f8310357a02fbd1859ad914"},{"txid":"4307b4138075d62d99c8c86c317611e5db896b2e8f9138703f8d328a9783393f","sequence":4294967295,"n":6,"addresses":["3PN1QjaiWF4Eu4SLwv1NBCVWp1bLgoB5Uj"],"isAddress":true,"value":"82360","hex":"220020b2b4ccf071de721196dfceee676a121be218bb4e9c44d0ac4addb88a051e2d8d"},{"txid":"189625ac50dbdc457ecba5681a89686f558b35bdae267977e51bf180c53fbdad","vout":1,"sequence":4294967295,"n":7,"addresses":["3PgANpX4byX3ds1LyTEkdLRuoQHqJ3gwc2"],"isAddress":true,"value":"11127419","hex":"2200208ecfcd2068ec52d440ad00f3fdc96a22c02bbca0f4446e8393983bbeb69538dd"},{"txid":"58c73d34e89cb6817d4982afc598857fe3e5159e58f66befb5753592cc8371ba","vout":176,"sequence":4294967295,"n":8,"addresses":["3PvUiRxwBCqDJZoLEqbbi1tyUGeAtfqmsq"],"isAddress":true,"value":"386437","hex":"220020442150226aaa37249053fbdbb082936c16793226a45040c5b8c366299cba90e0"},{"txid":"71197a27cb2e54aaef443987b5647e5b6ee983e805d0eda615a6adcb4808aae8","vout":1,"sequence":4294967295,"n":9,"addresses":["3K4J6FSPrpt4uxfhLEqitUeqipA5hR2zJN"],"isAddress":true,"value":"2800000","hex":"2200204641c471878dd6d6b6562ef3df9a5ba3f4076ba1c727e9506ae411753c345119"}],"vout":[{"value":"5209000","n":0,"spent":true,"hex":"a914086c3065c4446a15672da90bd1768dc5c564345b87","addresses":["32TYwBiWyTov2inpQmb46hxYqXUjM7vpyn"],"isAddress":true},{"value":"6462000","n":1,"spent":true,"hex":"a914933ddbdf02be00256af44e868c7e51d58d03abcb87","addresses":["3F7ZMmmCPfh6HAXTYrdcNt2XoGZYEVQx2Q"],"isAddress":true},{"value":"24950000","n":2,"spent":true,"hex":"76a914344a5d4c7276f884f533a3b0c5c85bedeff9ea7d88ac","addresses":["15mVDue9LMmJUdojX4J4DKKuh7PMmakxpH"],"isAddress":true},{"value":"1863950000","n":3,"spent":true,"hex":"a91469f3767e73688393da68e7ad0502b5a20628b22187","addresses":["3BMEXnLbokCAbgM7UkmeeEHp62FfuTbkDZ"],"isAddress":true},{"value":"2875100","n":4,"spent":true,"hex":"76a91470f73e2ce9ebeadfbaf871e9b41b8ec3e56e9a7f88ac","addresses":["1BJJsDpMow5dfM6s6fJhGcdtjoygBFUk66"],"isAddress":true},{"value":"89950000","n":5,"spent":true,"hex":"76a914f8a627494a407c50666151df6fa6dd3058995a5b88ac","addresses":["1Pfjd7tuXAGs56u3Tg88TTw91fYQEvWP4s"],"isAddress":true},{"value":"5705000","n":6,"spent":true,"hex":"a91469f37573ae6c629daf7e43ca1e96ab68527b80ae87","addresses":["3BMEXVwAWpkBi3fKgHxK2dX3HA14Uk2Djx"],"isAddress":true},{"value":"467101337","n":7,"spent":true,"hex":"a9141d88a04e2e7d1dbd8377bd7e99a03c109ed3c00787","addresses":["34PBC4VwqEMDZtGnFtHqoB9stqwm9LvQ6H"],"isAddress":true}],"blockHash":"0000000000000000001b39d7ccdcf5f7fb2df5e4b01c3d740442fced4e63dc96","blockHeight":570820,"confirmations":108076,"blockTime":1554769133,"value":"2466202437","valueIn":"2466469957","fees":"267520","hex":"0100000000010afbf9b5ee7e2719bfbeed8d16a3dfef6241490ac46e90cba4f58b3e838867280f0000000023220020cca0605b00ec3ed5a6afee6d88b36556e87e6abbbb8edd5088f38d916e991ce1ffffffff8173e40f6b78247630de1c7c365cefa5407ae5ff48d869a084e5e2b9c3994b7f09000000232200208e2607e8ac8a15efef82c44390f4aff5fa6031bec8d10bf091609cbae3a5d810ffffffffbc6603f907ef99c031b66ff75fb96412847e5402aa016334367fcfacb482fa920000000023220020fc8d2715d8e5e043aceb46dbc5c7f7b913bebb42156cb1ee67654dbb77d93c27ffffffffdb9a160776b3a295cd020061ed07a49d9f4255036669fe93b7c7fa6713ded73c0000000023220020ef68d6605d6aaf5c132193b39fdfd65c54d9c515aaaec7fcc76a8e0e226bd9b6ffffffff2ac9e6360aae8b80a3587d25e94b951a7dfb413ba594b90d0fd5f746ac43c00d00000000232200207be19a3e30b026faa29539e27d02d0e9599da507fb64fb14f2ba7663ecfa8ea1ffffffff0ab43a892328c243de319445b5f0b7784b0f70977bd9e7a03bee2e39eb16b6b3aa0000002322002078c6d7bff121e4a3ef4ac08ac86fc89d4f312d490f8310357a02fbd1859ad914ffffffff3f3983978a328d3f7038918f2e6b89dbe51176316cc8c8992dd6758013b407430000000023220020b2b4ccf071de721196dfceee676a121be218bb4e9c44d0ac4addb88a051e2d8dffffffffadbd3fc580f11be5777926aebd358b556f68891a68a5cb7e45dcdb50ac25961801000000232200208ecfcd2068ec52d440ad00f3fdc96a22c02bbca0f4446e8393983bbeb69538ddffffffffba7183cc923575b5ef6bf6589e15e5e37f8598c5af82497d81b69ce8343dc758b000000023220020442150226aaa37249053fbdbb082936c16793226a45040c5b8c366299cba90e0ffffffffe8aa0848cbada615a6edd005e883e96e5b7e64b5873944efaa542ecb277a197101000000232200204641c471878dd6d6b6562ef3df9a5ba3f4076ba1c727e9506ae411753c345119ffffffff08a87b4f000000000017a914086c3065c4446a15672da90bd1768dc5c564345b87309a62000000000017a914933ddbdf02be00256af44e868c7e51d58d03abcb87f0b47c01000000001976a914344a5d4c7276f884f533a3b0c5c85bedeff9ea7d88acb09e196f0000000017a91469f3767e73688393da68e7ad0502b5a20628b22187dcde2b00000000001976a91470f73e2ce9ebeadfbaf871e9b41b8ec3e56e9a7f88ac30875c05000000001976a914f8a627494a407c50666151df6fa6dd3058995a5b88ac280d57000000000017a91469f37573ae6c629daf7e43ca1e96ab68527b80ae879966d71b0000000017a9141d88a04e2e7d1dbd8377bd7e99a03c109ed3c00787040048304502210085fcf5a2849c2ad315a74954db17a6e5a9270fb4f5dfaf368c55b65edcbef1a302202ee63a1e6de879a0e9cf24d9d16df5c1ee228c5c0ef5ed84667ea5a2b44f5e830147304402205004fa828cdc90b922122805480c95c3fb4267f7439cb76ad95d28f8935cb41b02204d1f379821e0f36e76423154eac1a32b87d7dc44b88b55c03958312e8f87f0a70169522102c61ca42bd2ce3ae22f2112f4df91071c9f4e33a0541bfb8d981971c2aac19feb21036cee29260f036ee918373c96a85a12f78ab9d143e9528fd751685dbd96d99c9221037a267f14e1f152bac29f9a3ef94c885f1d5ab3439b2f85f3f80600593ee940cc53ae040047304402201ba5a254855f1f184a8faeefcfd283cd7dca6119f49f9f30d930baa73575977b0220594969aea58fcf4f56caff05722d31cd10d69bc5afea60b3085244d107c802fb01483045022100e1a6679a1f47d7da66f7dbcdf5401b30e3e8681cb5743ae7548c0860c433d48a02204e03a1f0684dfa4e54fc9967f4ee863f3f982f85238b77c747efd08e0666a6ae0169522103d49c011aa0821ec2cb56ec4f26fed88aa7538647546abe41f4db00959fae0462210264687cd26a2777cc9dbee2f7831f20c14cae3006ba75b03c5503bc192a9d2a062102291788b5f04b36c734fd5918f8f930006493a067fef4a6e2596bb10efca475f753ae0400483045022100a8b0a505acea6940db6099591e5c92cc84d66280f33244bea29f37ca770e574602207f4508b4fcb501f46d0b60cffea96eb119017bf6833ba93e98bddd4ba6caac8101483045022100b136475970df7624f5f9d0ab7c73d9474d0844ca8ba695534a168e9227ca692402205899273b4d477e8372c27f46c336a79f21161364525e30c233ebfc4951fd2db00169522102ac44779ecb8eb3ddbba449cf8b08b8ab69374a82993a492cba18761c83b386802102d8e10415761e07050504f7a4c2ef47bf52e1ae359c761628979da6cf6b6eff5a2102f188245ba623fe4c9dac92b7e398d458b3369896b9287474112d3a5c1f05793553ae0400473044022064ac33cb00a172777e94d5c12ab7935ca62151d51e4c38019d8253ee934901d1022011f724e4ec87ff87357c3a459cc69ea4a41943d67c4cb85a1fb4786f372278ae01473044022021f8055c86ed4c20cba7dda180b79956f994508a5caa186ef67f6b00314a38eb022018b2637c22260896c2ece63256d3707a6a0440ea4e69d73345adea95029b50dc016952210383d3ea6c0830c2ade6fbb971a56147e478b3465b4d1101955ac1ea3dca04e3382103063d7ad4de4d0c14a0edf9313ca1b4e84b2635bee35d1d9d3df42335acdbf97a2103b63d400ebf8c4dfa3e3bd7cc76bb4e67323b4795fc5cd421c8f121be296fed0853ae040047304402206e9b3ad4c1debb6a88f17d7b8c5abeddd60fa18141e0ff3c0d7454cc038d209702206d615155e246544c2a68afbaa52c97631954dc0fc0f711644ae381929eeaad7801473044022068a68d3a89e05d65dd34dad5e2cc0dd7901d6a5ea9ca379c84bfcfe5bb99fb9f02203ac60383e5ca1cbd2c859d7f3668738ebace793bc169ae9adca0167c0ab7d19c0169522102ed096277a68647fcbcf0fe7130ab8ac49744a5626c68ef8563659e35ae89cc662102d7f57175ce4955e3c32d415ddf4c76f0f0e9409a80f863bccfb2055eea23d81e21025bb2a7a62ba6dc07cf02fb905720576352243ea028a8282e76f632b7636b383853ae0400483045022100d9f0490550cbacb195841433b9331a5fa61b063b1f6366452e1fb8825a8eff9c02207e15853238a1d34ac7dcb80b86c0b078b02a8ef37156eed9d9d5d9b559884d9f0147304402207d5bcf296a79a1506add1c5521a00817295d7c76f76311d39e9c18e06a5b6ea9022065c29945c1b13e0b29581c92aa2cf21a80ad3da0ce3537422a25012cf8c12b210169522103335cbf9f310cdff895c24444ac9baf926bd312a0a8263ae895d7358969da79c82102de47533cdc7de301d1f61b27a155cbb80f7a5452c2b251183ca56f26c78305e22102f61187ebce0293459aecd81c3eebff60457f86e517f87d632278a7b9fe2736dd53ae0400483045022100c05d78661cf566bf197823818375de45379a5516f174b51c1805e344e774a74e02201be26fe8b0f00e86ac1b851262fc3757009963218017a62ff6d477b32d1f00f90147304402203e430fb936fcd3c4f899d735db98da889d7ab72ea21e5693fa847d3d31564dfc02207478beefb4381906e81b1acbefae268c04e8edcba1d0eadebe97890567286bc901695221026b5ab412aab0960ce1303ae93d0a050330e422d68c3f29852b0bc36ba38c9a5b21028a8c1bfdf917887871e4b6d0b715b4cbe3ff27ad21dfcf297be694b5dbba1c012102a88d3b1d1868f6ededc94bd36c84c74076b8ec5c06680c2490e14ab35b60fc5153ae0400473044022074912ed98f86104674f0992ffe86d041442e1be6c822fb5403345f7517b73883022048a85f6ef556fa3bba3bea20c6089377b6241b4bcf5983e12de3c1894c95642801483045022100879ab41de98976b066b8037f213ff19f40c330b84027ddab2d602f3d28d78bcc02207833038bfba65afc1410b7b058be8c52d1e8192016ca2bf13d94c0bc1ef9b1e201695221037afb13e2e50093c2452d3503f5638bad827feebce6b3fec7aa7a68b99f4f9a4d21022fbf285ee4442dc36da3806a9bdf6e655ec42143fa2220790b76f1caecc1a9a321030c41d004cca638f1cf24efd28f79a92d9e056efe670906873b5be73689dd389353ae040047304402205f510e26845183a2433639600dbd3c382665343f7e751ce88f171174c764a28d02202eb9c11970044dff83f2c5db7d0b49882155ef7026cf7e3129e1093e749614c301483045022100ce1c5a85a2173fac8a72cd67e4c461984670fd1d0c0ef1dd3fbf809af45ac59502201ec61f3de07bb055c2927e3962905e1ee93db7a694739ecb60c900b9db8449a90169522103f4b5591e489d189dea6159c6b022cb637dcff619bc23b85c53a3351776e8949321034f50a2016ef7870ffddb1145362b17ebaa41f0114672bbf1bf4ba0fc11c9b0942103c5701e8e34514a59021b2f001d24e6872c0656c74b0f1a40ff5f34adfa80924a53ae040047304402202575a0c4a7624bce8e93594d0a58d1e0194a8c0cc2a923b0732748e226d08eea022014965aad3d8e7f6882ca3ed569143f5818f6246ec2040d5b49afd04fcdfcf94c0147304402205aa3db039e4232e0edfa82008480ea92e2076558b45111523082490e5dd02792022061e9d7415fee9b235be67b4735c16fdbcac2cd671d8a31e718996735bc2e205b016952210222c6c8877341265c3e4f16fabfc21f60f77583bcdeafc1a647bab3f6fa37a80d21026acc95f73aa1c7d06ac4b12b664ab6e091f7fbef977eab3bb69137adc3eadebf2103dfaf7bacb969dbb0cf3089cb5a3b1a44dd8edc40e5ba741bfe43445425fa424653ae00000000"},{"txid":"71197a27cb2e54aaef443987b5647e5b6ee983e805d0eda615a6adcb4808aae8","version":1,"vin":[{"txid":"4c5719687cac71284f5152cfdb2bcbea976193f4dd185253f8d329d5afac7c19","vout":17,"sequence":4294967295,"n":0,"addresses":["bc1qfplary48e5q2payn35an9t8xsy84sm8ynrkwea"],"isAddress":true,"value":"9926421"}],"vout":[{"value":"7114552","n":0,"spent":true,"hex":"001442d95cc659e752746cc7b1d0102e40f8c156519d","addresses":["bc1qgtv4e3jeuaf8gmx8k8gpqtjqlrq4v5vayng3kd"],"isAddress":true},{"value":"2800000","n":1,"spent":true,"hex":"a914be805e8d29d0065148952d82ee3454e60deaf46d87","addresses":["3K4J6FSPrpt4uxfhLEqitUeqipA5hR2zJN"],"isAddress":true}],"blockHash":"00000000000000000014c04301803d48cfc48d7eeec92d1fe9177ea0f228c6e9","blockHeight":569992,"confirmations":108904,"blockTime":1554277874,"value":"9914552","valueIn":"9926421","fees":"11869","hex":"01000000000101197cacafd529d3f8535218ddf4936197eacb2bdbcf52514f2871ac7c6819574c1100000000ffffffff02388f6c000000000016001442d95cc659e752746cc7b1d0102e40f8c156519d80b92a000000000017a914be805e8d29d0065148952d82ee3454e60deaf46d870247304402200a9dfa1fd853cb5a99cddb760d38f16b7e3fb02823202261a84d191259eeb8a002207f6db08ad372e159c50a00b48e5c34ef6d1b4a0be57dcbf11676ac03756a72970121027118f4feb854c791db23b1550abe11b2ae205dc318bc2c1b0dc6ccab17e1948700000000"}]}
