{"page":1,"totalPages":1,"itemsOnPage":1000,"address":"bc1qkl6z6c8qz2v2luxv8ajj24t5ymqvex09f667q0","balance":"0","totalReceived":"6893409","totalSent":"6893409","unconfirmedBalance":"0","unconfirmedTxs":0,"txs":2,"transactions":[{"txid":"fb97cd7a2b97718c2abef57722c95ee6752539d27eb0dae6f71a232e1d165e72","version":1,"vin":[{"txid":"0ae609e7ced97c16fd5957d8999c5692cb83143a075098ca8a28dc271c9b9287","sequence":4294967295,"n":0,"addresses":["bc1qkl6z6c8qz2v2luxv8ajj24t5ymqvex09f667q0"],"isAddress":true,"value":"6893409"}],"vout":[{"value":"944136","n":0,"spent":true,"hex":"a9147d6cee65c4e4ffcb3bdd37cd807af00607d515bb87","addresses":["3D8CtCRjjFptY8k8XZEiRjkEJs7SRn77W7"],"isAddress":true},{"value":"5944833","n":1,"spent":true,"hex":"0014a640e69f506085be5e3ad93589f90b336165dafb","addresses":["bc1q5eqwd86svzzmuh36my6cn7gtxdsktkhmm6l6du"],"isAddress":true}],"blockHeight":-1,"confirmations":0,"blockTime":1581131496,"value":"6888969","valueIn":"6893409","fees":"4440","hex":"0100000000010187929b1c27dc288aca9850073a1483cb92569c99d85759fd167cd9cee709e60a0000000000ffffffff0208680e000000000017a9147d6cee65c4e4ffcb3bdd37cd807af00607d515bb8701b65a0000000000160014a640e69f506085be5e3ad93589f90b336165dafb02483045022100aa4d6aaf56bf943e5ece613709f0286ff7cd544e4778938acf0fe60bf7fadf0d022034eaf37978541e0b1da27d8cd3517e4fceed21774e7ecdda99ef4f7fee6f0c06012103ba0fc64281932f5316cffb30a6f5e88d022ed8bcdc3b2f39822392f0541248a000000000"},{"txid":"0ae609e7ced97c16fd5957d8999c5692cb83143a075098ca8a28dc271c9b9287","version":1,"vin":[{"txid":"272ba2cbf31cc052848e39d0dfbf8ecd06c0e2f0c5a94d046deff24f76949cf5","vout":1,"sequence":4294967295,"n":0,"addresses":["bc1qglpj9v7lyfz2zy6vzq3kec5uyg2njj79p20436"],"isAddress":true,"value":"9777889"}],"vout":[{"value":"6893409","n":0,"spent":true,"hex":"0014b7f42d60e01298aff0cc3f6525557426c0cc99e5","addresses":["bc1qkl6z6c8qz2v2luxv8ajj24t5ymqvex09f667q0"],"isAddress":true},{"value":"2880000","n":1,"spent":true,"hex":"76a91458f2c79579464c0f5931601a271c6f01983c566688ac","addresses":["197KJWJDKtJp1bciXk7TCcGw543Nf4J9Gv"],"isAddress":true}],"blockHeight":-1,"confirmations":0,"blockTime":1580111855,"value":"9773409","valueIn":"9777889","fees":"4480","hex":"01000000000101f59c94764ff2ef6d044da9c5f0e2c006cd8ebfdfd0398e8452c01cf3cba22b270100000000ffffffff02612f690000000000160014b7f42d60e01298aff0cc3f6525557426c0cc99e500f22b00000000001976a91458f2c79579464c0f5931601a271c6f01983c566688ac02483045022100b37fcbe7ce2bb50e562c95c41cb7edacab87839a587d5784e88a90da9247a2d302207428f42116aef971e314b56bf59789ef0f026400475b238f7930018a7a978956012103255948c0a1bcc2e1880cfca6e24ee2bfa1abffc9bcfb77ec871ba04338353a6800000000"}]}
